{
  "contractName": "LootBox",
  "abi": [
    {
      "anonymous": false,
      "inputs": [
        {
          "indexed": true,
          "internalType": "address",
          "name": "to",
          "type": "address"
        },
        {
          "indexed": false,
          "internalType": "uint256",
          "name": "amount",
          "type": "uint256"
        }
      ],
      "name": "TransferredEther",
      "type": "event"
    },
    {
      "anonymous": false,
      "inputs": [
        {
          "indexed": true,
          "internalType": "address",
          "name": "token",
          "type": "address"
        },
        {
          "indexed": false,
          "internalType": "uint256[]",
          "name": "ids",
          "type": "uint256[]"
        },
        {
          "indexed": false,
          "internalType": "uint256[]",
          "name": "amounts",
          "type": "uint256[]"
        },
        {
          "indexed": false,
          "internalType": "bytes",
          "name": "data",
          "type": "bytes"
        }
      ],
      "name": "WithdrewERC1155",
      "type": "event"
    },
    {
      "anonymous": false,
      "inputs": [
        {
          "indexed": true,
          "internalType": "address",
          "name": "token",
          "type": "address"
        },
        {
          "indexed": false,
          "internalType": "uint256",
          "name": "amount",
          "type": "uint256"
        }
      ],
      "name": "WithdrewERC20",
      "type": "event"
    },
    {
      "anonymous": false,
      "inputs": [
        {
          "indexed": true,
          "internalType": "address",
          "name": "token",
          "type": "address"
        },
        {
          "indexed": false,
          "internalType": "uint256[]",
          "name": "tokenIds",
          "type": "uint256[]"
        }
      ],
      "name": "WithdrewERC721",
      "type": "event"
    },
    {
      "inputs": [],
      "name": "initialize",
      "outputs": [],
      "stateMutability": "nonpayable",
      "type": "function"
    },
    {
      "inputs": [
        {
          "components": [
            {
              "internalType": "address",
              "name": "to",
              "type": "address"
            },
            {
              "internalType": "uint256",
              "name": "value",
              "type": "uint256"
            },
            {
              "internalType": "bytes",
              "name": "data",
              "type": "bytes"
            }
          ],
          "internalType": "struct LootBox.Call[]",
          "name": "calls",
          "type": "tuple[]"
        }
      ],
      "name": "executeCalls",
      "outputs": [
        {
          "internalType": "bytes[]",
          "name": "",
          "type": "bytes[]"
        }
      ],
      "stateMutability": "nonpayable",
      "type": "function"
    },
    {
      "inputs": [
        {
          "internalType": "contract IERC20Upgradeable[]",
          "name": "erc20",
          "type": "address[]"
        },
        {
          "components": [
            {
              "internalType": "contract IERC721Upgradeable",
              "name": "token",
              "type": "address"
            },
            {
              "internalType": "uint256[]",
              "name": "tokenIds",
              "type": "uint256[]"
            }
          ],
          "internalType": "struct LootBox.WithdrawERC721[]",
          "name": "erc721",
          "type": "tuple[]"
        },
        {
          "components": [
            {
              "internalType": "contract IERC1155Upgradeable",
              "name": "token",
              "type": "address"
            },
            {
              "internalType": "uint256[]",
              "name": "ids",
              "type": "uint256[]"
            },
            {
              "internalType": "uint256[]",
              "name": "amounts",
              "type": "uint256[]"
            },
            {
              "internalType": "bytes",
              "name": "data",
              "type": "bytes"
            }
          ],
          "internalType": "struct LootBox.WithdrawERC1155[]",
          "name": "erc1155",
          "type": "tuple[]"
        },
        {
          "internalType": "address payable",
          "name": "to",
          "type": "address"
        }
      ],
      "name": "plunder",
      "outputs": [],
      "stateMutability": "nonpayable",
      "type": "function"
    },
    {
      "inputs": [
        {
          "internalType": "address payable",
          "name": "to",
          "type": "address"
        }
      ],
      "name": "destroy",
      "outputs": [],
      "stateMutability": "nonpayable",
      "type": "function"
    }
  ],
  "bytecode": "0x608060405234801561001057600080fd5b506113d9806100206000396000f3fe608060405234801561001057600080fd5b506004361061004b5760003560e01c8062f55d9d146100505780631726fa81146100655780637cc0f2111461008e5780638129fc1c146100a1575b600080fd5b61006361005e366004610eb4565b6100a9565b005b610078610073366004610fce565b61013c565b6040516100859190611156565b60405180910390f35b61006361009c366004610ed7565b61033c565b61006361041a565b6000546001600160a01b031633146101085760405162461bcd60e51b815260206004820152601260248201527f4c6f6f74426f782f6f6e6c792d6f776e6572000000000000000000000000000060448201526064015b60405180910390fd5b600080547fffffffffffffffffffffffff00000000000000000000000000000000000000001690556001600160a01b038116ff5b6000546060906001600160a01b031633146101995760405162461bcd60e51b815260206004820152601260248201527f4c6f6f74426f782f6f6e6c792d6f776e6572000000000000000000000000000060448201526064016100ff565b60008267ffffffffffffffff8111156101c257634e487b7160e01b600052604160045260246000fd5b6040519080825280602002602001820160405280156101f557816020015b60608152602001906001900390816101e05790505b50905060005b83811015610334576102f685858381811061022657634e487b7160e01b600052603260045260246000fd5b9050602002810190610238919061126c565b610246906020810190610eb4565b86868481811061026657634e487b7160e01b600052603260045260246000fd5b9050602002810190610278919061126c565b6020013587878581811061029c57634e487b7160e01b600052603260045260246000fd5b90506020028101906102ae919061126c565b6102bc906040810190611220565b8080601f01602080910402602001604051908101604052809392919081815260200183838082843760009201919091525061049f92505050565b82828151811061031657634e487b7160e01b600052603260045260246000fd5b6020026020010181905250808061032c9061134e565b9150506101fb565b509392505050565b6000546001600160a01b031633146103965760405162461bcd60e51b815260206004820152601260248201527f4c6f6f74426f782f6f6e6c792d6f776e6572000000000000000000000000000060448201526064016100ff565b6001600160a01b0381166103ec5760405162461bcd60e51b815260206004820152601360248201527f4c6f6f74426f782f6e6f6e2d7a65726f2d746f0000000000000000000000000060448201526064016100ff565b6103f6848261052e565b6104008382610744565b61040a8282610955565b6104148147610b76565b50505050565b6000546001600160a01b0316156104735760405162461bcd60e51b815260206004820152601460248201527f4c6f6f74426f782f616c72656164792d696e697400000000000000000000000060448201526064016100ff565b600080547fffffffffffffffffffffffff00000000000000000000000000000000000000001633179055565b6060600080856001600160a01b031685856040516104bd91906110dc565b60006040518083038185875af1925050503d80600081146104fa576040519150601f19603f3d011682016040523d82523d6000602084013e6104ff565b606091505b50915091508181906105245760405162461bcd60e51b81526004016100ff919061120d565b5095945050505050565b60005b825181101561073f57600083828151811061055c57634e487b7160e01b600052603260045260246000fd5b60209081029190910101516040517f70a082310000000000000000000000000000000000000000000000000000000081523060048201526001600160a01b03909116906370a082319060240160206040518083038186803b1580156105c057600080fd5b505afa1580156105d4573d6000803e3d6000fd5b505050506040513d601f19601f820116820180604052508101906105f8919061105e565b905083828151811061061a57634e487b7160e01b600052603260045260246000fd5b60209081029190910101516040517fa9059cbb0000000000000000000000000000000000000000000000000000000081526001600160a01b038581166004830152602482018490529091169063a9059cbb90604401602060405180830381600087803b15801561068957600080fd5b505af115801561069d573d6000803e3d6000fd5b505050506040513d601f19601f820116820180604052508101906106c1919061103e565b508382815181106106e257634e487b7160e01b600052603260045260246000fd5b60200260200101516001600160a01b03167f93295a03b599aa244f344512a042ed4a3cd191df56cc1454674b0bd8593777498260405161072491815260200190565b60405180910390a250806107378161134e565b915050610531565b505050565b60005b825181101561073f5760005b83828151811061077357634e487b7160e01b600052603260045260246000fd5b602002602001015160200151518110156108ab578382815181106107a757634e487b7160e01b600052603260045260246000fd5b6020026020010151600001516001600160a01b03166323b872dd30858786815181106107e357634e487b7160e01b600052603260045260246000fd5b602002602001015160200151858151811061080e57634e487b7160e01b600052603260045260246000fd5b60209081029190910101516040517fffffffff0000000000000000000000000000000000000000000000000000000060e086901b1681526001600160a01b0393841660048201529290911660248301526044820152606401600060405180830381600087803b15801561088057600080fd5b505af1158015610894573d6000803e3d6000fd5b5050505080806108a39061134e565b915050610753565b508281815181106108cc57634e487b7160e01b600052603260045260246000fd5b6020026020010151600001516001600160a01b03167f7c0114b67370be67d9c25c0fae9f991d289ce990616efebe475d8447764b364984838151811061092257634e487b7160e01b600052603260045260246000fd5b60200260200101516020015160405161093b91906111b7565b60405180910390a28061094d8161134e565b915050610747565b60005b825181101561073f5782818151811061098157634e487b7160e01b600052603260045260246000fd5b6020026020010151600001516001600160a01b0316632eb2c2d630848685815181106109bd57634e487b7160e01b600052603260045260246000fd5b6020026020010151602001518786815181106109e957634e487b7160e01b600052603260045260246000fd5b602002602001015160400151888781518110610a1557634e487b7160e01b600052603260045260246000fd5b6020026020010151606001516040518663ffffffff1660e01b8152600401610a419594939291906110f8565b600060405180830381600087803b158015610a5b57600080fd5b505af1158015610a6f573d6000803e3d6000fd5b50505050828181518110610a9357634e487b7160e01b600052603260045260246000fd5b6020026020010151600001516001600160a01b03167f25eda4a32b6b54b71997d605d08b9a0b5b8195e846780404a97089d22cdc896c848381518110610ae957634e487b7160e01b600052603260045260246000fd5b602002602001015160200151858481518110610b1557634e487b7160e01b600052603260045260246000fd5b602002602001015160400151868581518110610b4157634e487b7160e01b600052603260045260246000fd5b602002602001015160600151604051610b5c939291906111ca565b60405180910390a280610b6e8161134e565b915050610958565b6040516001600160a01b0383169082156108fc029083906000818181858888f19350505050158015610bac573d6000803e3d6000fd5b50816001600160a01b03167ff35d7b6a86398c5aabcd316353d6f069dbc1be6fa0ab49d809bfbf6d96f5557582604051610be891815260200190565b60405180910390a25050565b8035610bff8161138b565b919050565b600082601f830112610c14578081fd5b81356020610c29610c24836112fe565b6112cd565b80838252828201915082860187848660051b8901011115610c48578586fd5b855b85811015610d1857813567ffffffffffffffff80821115610c69578889fd5b908901906080828c03601f1901811315610c8157898afd5b610c89611281565b610c94898501610bf4565b8152604084013583811115610ca7578b8cfd5b610cb58e8b83880101610dec565b8a8301525060608085013584811115610ccc578c8dfd5b610cda8f8c83890101610dec565b604084015250918401359183831115610cf1578b8cfd5b610cff8e8b85880101610e49565b9082015287525050509284019290840190600101610c4a565b5090979650505050505050565b600082601f830112610d35578081fd5b81356020610d45610c24836112fe565b80838252828201915082860187848660051b8901011115610d64578586fd5b855b85811015610d1857813567ffffffffffffffff80821115610d85578889fd5b908901906040828c03601f1901811315610d9d57898afd5b610da56112aa565b88840135610db28161138b565b8152908301359082821115610dc5578a8bfd5b610dd38d8a84870101610dec565b818a015287525050509284019290840190600101610d66565b600082601f830112610dfc578081fd5b81356020610e0c610c24836112fe565b80838252828201915082860187848660051b8901011115610e2b578586fd5b855b85811015610d1857813584529284019290840190600101610e2d565b600082601f830112610e59578081fd5b813567ffffffffffffffff811115610e7357610e73611375565b610e86601f8201601f19166020016112cd565b818152846020838601011115610e9a578283fd5b816020850160208301379081016020019190915292915050565b600060208284031215610ec5578081fd5b8135610ed08161138b565b9392505050565b60008060008060808587031215610eec578283fd5b843567ffffffffffffffff80821115610f03578485fd5b818701915087601f830112610f16578485fd5b81356020610f26610c24836112fe565b8083825282820191508286018c848660051b8901011115610f4557898afd5b8996505b84871015610f70578035610f5c8161138b565b835260019690960195918301918301610f49565b5098505088013592505080821115610f86578485fd5b610f9288838901610d25565b94506040870135915080821115610fa7578384fd5b50610fb487828801610c04565b925050610fc360608601610bf4565b905092959194509250565b60008060208385031215610fe0578182fd5b823567ffffffffffffffff80821115610ff7578384fd5b818501915085601f83011261100a578384fd5b813581811115611018578485fd5b8660208260051b850101111561102c578485fd5b60209290920196919550909350505050565b60006020828403121561104f578081fd5b81518015158114610ed0578182fd5b60006020828403121561106f578081fd5b5051919050565b6000815180845260208085019450808401835b838110156110a557815187529582019590820190600101611089565b509495945050505050565b600081518084526110c8816020860160208601611322565b601f01601f19169290920160200192915050565b600082516110ee818460208701611322565b9190910192915050565b60006001600160a01b03808816835280871660208401525060a0604083015261112460a0830186611076565b82810360608401526111368186611076565b9050828103608084015261114a81856110b0565b98975050505050505050565b6000602080830181845280855180835260408601915060408160051b8701019250838701855b828110156111aa57603f198886030184526111988583516110b0565b9450928501929085019060010161117c565b5092979650505050505050565b602081526000610ed06020830184611076565b6060815260006111dd6060830186611076565b82810360208401526111ef8186611076565b9050828103604084015261120381856110b0565b9695505050505050565b602081526000610ed060208301846110b0565b6000808335601e19843603018112611236578283fd5b83018035915067ffffffffffffffff821115611250578283fd5b60200191503681900382131561126557600080fd5b9250929050565b60008235605e198336030181126110ee578182fd5b6040516080810167ffffffffffffffff811182821017156112a4576112a4611375565b60405290565b6040805190810167ffffffffffffffff811182821017156112a4576112a4611375565b604051601f8201601f1916810167ffffffffffffffff811182821017156112f6576112f6611375565b604052919050565b600067ffffffffffffffff82111561131857611318611375565b5060051b60200190565b60005b8381101561133d578181015183820152602001611325565b838111156104145750506000910152565b600060001982141561136e57634e487b7160e01b81526011600452602481fd5b5060010190565b634e487b7160e01b600052604160045260246000fd5b6001600160a01b03811681146113a057600080fd5b5056fea2646970667358221220de10f310eb7f7fd5060a31f1b71e442059a39efe2250e9de3619e0e18bbd78cd64736f6c63430008040033",
  "immutableReferences": {},
  "source": "// SPDX-License-Identifier: MIT\r\n\r\npragma solidity ^0.8.0;\r\npragma experimental ABIEncoderV2;\r\n\r\nimport \"./../node_modules/@openzeppelin/contracts-upgradeable/token/ERC721/ERC721Upgradeable.sol\";\r\nimport \"./../node_modules/@openzeppelin/contracts-upgradeable/token/ERC20/ERC20Upgradeable.sol\";\r\nimport \"./../node_modules/@openzeppelin/contracts-upgradeable/token/ERC1155/ERC1155Upgradeable.sol\";\r\n\r\ncontract LootBox {\r\n\r\n  \r\n  struct Call {\r\n    address to;\r\n    uint256 value;\r\n    bytes data;\r\n  }\r\n\r\n  \r\n  struct WithdrawERC721 {\r\n    IERC721Upgradeable token;\r\n    uint256[] tokenIds;\r\n  }\r\n\r\n  \r\n  struct WithdrawERC1155 {\r\n    IERC1155Upgradeable token;\r\n    uint256[] ids;\r\n    uint256[] amounts;\r\n    bytes data;\r\n  }\r\n\r\n  \r\n  event WithdrewERC20(address indexed token, uint256 amount);\r\n\r\n  \r\n  event WithdrewERC721(address indexed token, uint256[] tokenIds);\r\n\r\n \r\n  event WithdrewERC1155(address indexed token, uint256[] ids, uint256[] amounts, bytes data);\r\n\r\n \r\n  event TransferredEther(address indexed to, uint256 amount);\r\n\r\n  address private _owner;\r\n\r\n  function initialize () public {\r\n    require(_owner == address(0), \"LootBox/already-init\");\r\n    _owner = msg.sender;\r\n  }\r\n\r\n  function executeCalls(Call[] calldata calls) external onlyOwner returns (bytes[] memory) {\r\n    bytes[] memory response = new bytes[](calls.length);\r\n    for (uint256 i = 0; i < calls.length; i++) {\r\n      response[i] = _executeCall(calls[i].to, calls[i].value, calls[i].data);\r\n    }\r\n    return response;\r\n  }\r\n  function _transferEther(address payable to, uint256 amount) internal {\r\n    to.transfer(amount);\r\n\r\n    emit TransferredEther(to, amount);\r\n  }\r\n\r\n  function plunder(\r\n    IERC20Upgradeable[] memory erc20,\r\n    WithdrawERC721[] memory erc721,\r\n    WithdrawERC1155[] memory erc1155,\r\n    address payable to\r\n  ) external onlyOwner {\r\n    require(to != address(0), \"LootBox/non-zero-to\");\r\n    _withdrawERC20(erc20, to);\r\n    _withdrawERC721(erc721, to);\r\n    _withdrawERC1155(erc1155, to);\r\n    _transferEther(to, address(this).balance);\r\n  }\r\n\r\n  function destroy(address payable to) external onlyOwner {\r\n    delete _owner;\r\n    selfdestruct(to);\r\n  }\r\n  function _executeCall(address to, uint256 value, bytes memory data) internal returns (bytes memory) {\r\n    (bool succeeded, bytes memory returnValue) = to.call{value : value}(data);\r\n    require(succeeded, string(returnValue));\r\n    return returnValue;\r\n  }\r\n\r\n\r\n  function _withdrawERC20(IERC20Upgradeable[] memory tokens, address to) internal {\r\n    for (uint256 i = 0; i < tokens.length; i++) {\r\n      uint256 balance = tokens[i].balanceOf(address(this));\r\n      tokens[i].transfer(to, balance);\r\n\r\n      emit WithdrewERC20(address(tokens[i]), balance);\r\n    }\r\n  }\r\n\r\n\r\n  function _withdrawERC721(WithdrawERC721[] memory withdrawals, address to) internal {\r\n    for (uint256 i = 0; i < withdrawals.length; i++) {\r\n      for (uint256 tokenIndex = 0; tokenIndex < withdrawals[i].tokenIds.length; tokenIndex++) {\r\n        withdrawals[i].token.transferFrom(address(this), to, withdrawals[i].tokenIds[tokenIndex]);\r\n      }\r\n\r\n      emit WithdrewERC721(address(withdrawals[i].token), withdrawals[i].tokenIds);\r\n    }\r\n  }\r\n\r\n\r\n  function _withdrawERC1155(WithdrawERC1155[] memory withdrawals, address to) internal {\r\n    for (uint256 i = 0; i < withdrawals.length; i++) {\r\n      withdrawals[i].token.safeBatchTransferFrom(address(this), to, withdrawals[i].ids, withdrawals[i].amounts, withdrawals[i].data);\r\n\r\n      emit WithdrewERC1155(address(withdrawals[i].token), withdrawals[i].ids, withdrawals[i].amounts, withdrawals[i].data);\r\n    }\r\n  }\r\n\r\n  modifier onlyOwner {\r\n    require(msg.sender == _owner, \"LootBox/only-owner\");\r\n    _;\r\n  }\r\n}",
  "sourcePath": "C:\\Users\\OmrElibol\\OneDrive\\Masast\\PixyBoxContracts\\contracts\\LootBox.sol",
  "compiler": {
    "name": "solc",
    "version": "0.8.4+commit.c7e474f2.Emscripten.clang"
  },
  "schemaVersion": "3.4.7",
  "updatedAt": "2022-06-24T11:10:55.513Z",
  "devdoc": {
    "kind": "dev",
    "methods": {},
    "version": 1
  },
  "userdoc": {
    "kind": "user",
    "methods": {},
    "version": 1
  }
}